:020000040000FA
:100000000C9462000C948A000C948A000C948A0070
:100010000C948A000C948A000C948A000C948A0038
:100020000C948A000C948A000C948A000C948A0028
:100030000C948A000C948A000C948A000C948A0018
:100040000C94D0020C948A000C948A000C948A00C0
:100050000C948A000C948A000C948A000C948A00F8
:100060000C948A000C948A000000000024002700F1
:100070002A0000000000250028002B0000000000DE
:1000800023002600290004040404040404040202DA
:100090000202020203030303030301020408102007
:1000A0004080010204081020010204081020000012
:1000B0000008000201000003040700000000000027
:1000C0000000F30311241FBECFEFD8E0DEBFCDBF89
:1000D00011E0A0E0B1E0E4E3F8E002C005900D9289
:1000E000A037B107D9F721E0A0E7B1E001C01D9228
:1000F000A739B207E1F710E0C2E6D0E004C02197CB
:10010000FE010E941204C136D107C9F70E941A03EA
:100110000C9418040C940000833081F028F4813092
:1001200099F08230A9F008958730A9F08830C9F09D
:100130008430B1F4809180008F7D03C08091800075
:100140008F7780938000089584B58F7784BD08955C
:1001500084B58F7DFBCF8091B0008F778093B00006
:1001600008958091B0008F7DF9CFCF93DF93282F32
:1001700030E0F901E255FF4F8491F901E656FF4F57
:10018000D491F901EA57FF4FC491CC23A1F081111A
:100190000E948C00EC2FF0E0EE0FFF1FE458FF4FA1
:1001A000A591B491EC91ED2381E090E009F480E019
:1001B000DF91CF91089580E090E0FACF1F93CF9325
:1001C000DF93282F30E0F901E255FF4F8491F901C8
:1001D000E656FF4FD491F901EA57FF4FC491CC2363
:1001E000A9F0162F81110E948C00EC2FF0E0EE0F89
:1001F000FF1FEE58FF4FA591B4918FB7F894EC9183
:10020000111108C0D095DE23DC938FBFDF91CF9111
:100210001F910895DE2BF8CFCF93DF9390E0FC0180
:10022000E656FF4F24918A579F4FFC018491882303
:10023000D1F090E0880F991FFC01E859FF4FA5917C
:10024000B491FC01EE58FF4FC591D49161110EC0DD
:100250009FB7F8948C91E22FE0958E238C932881A0
:10026000E223E8839FBFDF91CF9108958FB7F89481
:10027000EC91E22BEC938FBFF6CFAF92BF92CF926F
:10028000DF92EF92FF920F931F93CF93DF936C0156
:100290007B018B01040F151FEB015E01AE18BF0837
:1002A000C017D10759F06991D601ED91FC910190E9
:1002B000F081E02DC6010995892B79F7C501DF9101
:1002C000CF911F910F91FF90EF90DF90CF90BF9053
:1002D000AF900895089590E080E00895FC010190AA
:1002E0000020E9F73197AF01481B590BBC018FE79C
:1002F00091E00C943D01CF93DF93EC0160E08E819F
:100300000E94DE0061E08E810E94DE0060E08E814E
:100310000E94DE008BE891E00197F1F7DF91CF9129
:100320000895CF92DF92EF92FF920F931F93CF9396
:10033000DF936C017C0187E0E80EF11CD0E0C0E0A7
:10034000062F10E0B8010C2E02C0759567950A942F
:10035000E2F76170F70181917F010E94DE00219632
:10036000C430D10579F7C601DF91CF911F910F916C
:10037000FF90EF90DF90CF900C947B01CF92DF92B3
:10038000EF92FF920F931F93CF93DF93EC01F62E22
:10039000642F8C810E94DE008D818F3F19F060E018
:1003A0000E94DE000F2D10E08F8584FF25C06E01B6
:1003B00087E0C80ED11CF12CE12CB8010E2C02C034
:1003C000759567950A94E2F76170F60181916F0166
:1003D0000E94DE00FFEFEF1AFF0A88E0E816F10442
:1003E00061F7CE01DF91CF911F910F91FF90EF90B8
:1003F000DF90CF900C947B01B80184E075956795F0
:100400008A95E1F7CE010E9491016F2DCE01DF9117
:10041000CF911F910F91FF90EF90DF90CF900C94B0
:10042000910140E0682F8FE791E00C94BE01CF93DB
:10043000DF93613029F090918E01986090938E0146
:10044000609392011092930190E4909394018093B1
:100450009501805C8093960161E0809183010E9408
:100460000C01809184018F3F19F061E00E940C0122
:1004700061E0809185010E940C01CFE7D1E09E01EF
:100480002F57314080918E0184FD0BC084E090E0B5
:1004900021962817390744F461E08E810E940C01EF
:1004A000EECF88E090E0F4CF8BE39DE00197F1F789
:1004B00060E0809183010E94DE0060E08091850110
:1004C0000E94DE00809184018F3F19F060E00E945D
:1004D000DE0080918E0184FD39C063E08FE791E0FA
:1004E0000E949101CBE4D6E4CE010197F1F763E0DD
:1004F0008FE791E00E9491012197F1F763E08FE788
:1005000091E00E94910183E592E00197F1F762E0AA
:100510008FE791E00E94910180918E0180620E949C
:10052000110284E080938F018CE00E94110281E02F
:100530000E9411028BE39FE10197F1F782E0809323
:10054000900186E0DF91CF910C94110280620E94AD
:1005500011028BE496E40197F1F780918E0180629D
:100560000E94110283E592E00197F1F780918E01DC
:1005700080620E941102D0CF90919201891710F0F1
:100580008FEF890FE82FF0E0E158FE4F84898068F3
:100590000C94110241E00E94BE0181E090E00895B8
:1005A0001F920F920FB60F9211242F933F938F93A8
:1005B0009F93AF93BF9380917B0190917C01A09119
:1005C0007D01B0917E0130917A0123E0230F2D3718
:1005D00058F50196A11DB11D20937A0180937B01EE
:1005E00090937C01A0937D01B0937E018091760170
:1005F00090917701A0917801B09179010196A11DA8
:10060000B11D8093760190937701A0937801B09308
:100610007901BF91AF919F918F913F912F910F9051
:100620000FBE0F901F90189526E8230F0296A11D6C
:10063000B11DD2CF789484B5826084BD84B58160C9
:1006400084BD85B5826085BD85B5816085BD80919D
:100650006E00816080936E00109281008091810015
:10066000826080938100809181008160809381000D
:10067000809180008160809380008091B1008460CF
:100680008093B1008091B00081608093B000809130
:100690007A00846080937A0080917A0082608093EF
:1006A0007A0080917A00816080937A0080917A004C
:1006B000806880937A001092C10061E08DE00E9412
:1006C0000C0161E08CE00E940C0161E08BE00E9473
:1006D0000C0160E082E00E940C0160E083E00E9477
:1006E0000C0160E084E00E940C0164E084E10E945F
:1006F000170281E00E9411028BE39FE10197F1F75D
:1007000080E00E94BC028CE091E00E946E0100E05B
:1007100010E082E00E94B500EC0190937501809397
:10072000740183E00E94B50090937301809372017D
:1007300084E00E94B500909371018093700121972D
:10074000A1F561E08DE00E94DE0081E00E94BC0224
:100750008FE191E00E946E0180917201909173018E
:10076000019769F561E08CE00E94DE0082E00E9462
:10077000BC028CE391E00E946E0180917001909127
:100780007101019731F561E08BE00E94DE0083E0AA
:100790000E94BC0283E591E00E946E0101151105E3
:1007A00009F4B7CF0E940000B4CF60E08DE00E9452
:1007B000DE0081E00E94BC028DE291E0CBCF60E0E0
:1007C0008CE00E94DE0082E00E94BC0287E491E09F
:1007D000D2CF60E08BE00E94DE0083E00E94BC028A
:1007E00081E691E0D9CFEFE7F1E01382128284E055
:1007F00091E0918380838AE084838FEF858389E011
:10080000868388E0878387E0808786E0818785E02C
:1008100082871386148615861686178661E080E126
:100820000C941702EE0FFF1F0590F491E02D099430
:10083000F894FFCF00000000CA023D016B016A017D
:1008400044617669652773204175746F6D617469C1
:100850006F6E004C414D502031204953204F4E20A7
:10086000004C414D502031204953204F4646200036
:1008700046414E204953204F4E200046414E2049CC
:1008800053204F464620004C414D502032204953C2
:10089000204F4E20004C414D5032204953204F46AE
:0408A00046200000EE
:107E0000112484B714BE81FFF0D085E080938100F7
:107E100082E08093C00088E18093C10086E0809377
:107E2000C20080E18093C4008EE0C9D0259A86E02C
:107E300020E33CEF91E0309385002093840096BBD3
:107E4000B09BFECF1D9AA8958150A9F7CC24DD24C4
:107E500088248394B5E0AB2EA1E19A2EF3E0BF2EE7
:107E6000A2D0813461F49FD0082FAFD0023811F036
:107E7000013811F484E001C083E08DD089C08234E0
:107E800011F484E103C0853419F485E0A6D080C0E4
:107E9000853579F488D0E82EFF2485D0082F10E0AE
:107EA000102F00270E291F29000F111F8ED06801E7
:107EB0006FC0863521F484E090D080E0DECF843638
:107EC00009F040C070D06FD0082F6DD080E0C81688
:107ED00080E7D80618F4F601B7BEE895C0E0D1E017
:107EE00062D089930C17E1F7F0E0CF16F0E7DF06D8
:107EF00018F0F601B7BEE89568D007B600FCFDCFD4
:107F0000A601A0E0B1E02C9130E011968C91119780
:107F100090E0982F8827822B932B1296FA010C0160
:107F200087BEE89511244E5F5F4FF1E0A038BF0790
:107F300051F7F601A7BEE89507B600FCFDCF97BE46
:107F4000E89526C08437B1F42ED02DD0F82E2BD052
:107F50003CD0F601EF2C8F010F5F1F4F84911BD097
:107F6000EA94F801C1F70894C11CD11CFA94CF0C13
:107F7000D11C0EC0853739F428D08EE10CD085E9AC
:107F80000AD08FE07ACF813511F488E018D01DD067
:107F900080E101D065CF982F8091C00085FFFCCF94
:107FA0009093C60008958091C00087FFFCCF809118
:107FB000C00084FD01C0A8958091C6000895E0E648
:107FC000F0E098E1908380830895EDDF803219F02E
:107FD00088E0F5DFFFCF84E1DECF1F93182FE3DFCA
:107FE0001150E9F7F2DF1F91089580E0E8DFEE27F6
:047FF000FF270994CA
:027FFE00040479
:00000001FF
